{
  "_format": "hh-sol-artifact-1",
  "contractName": "BlowWhistle",
  "sourceName": "contracts/BlowWhistle.sol",
  "abi": [
    {
      "inputs": [
        {
          "internalType": "string",
          "name": "initStory",
          "type": "string"
        }
      ],
      "stateMutability": "nonpayable",
      "type": "constructor"
    },
    {
      "anonymous": false,
      "inputs": [],
      "name": "CreatorGotPaid",
      "type": "event"
    },
    {
      "anonymous": false,
      "inputs": [
        {
          "indexed": false,
          "internalType": "string",
          "name": "story",
          "type": "string"
        }
      ],
      "name": "NewStoryPublished",
      "type": "event"
    },
    {
      "inputs": [],
      "name": "latestStory",
      "outputs": [
        {
          "internalType": "string",
          "name": "",
          "type": "string"
        }
      ],
      "stateMutability": "view",
      "type": "function"
    },
    {
      "inputs": [
        {
          "internalType": "string",
          "name": "_newStory",
          "type": "string"
        }
      ],
      "name": "newStory",
      "outputs": [],
      "stateMutability": "nonpayable",
      "type": "function"
    }
  ],
  "bytecode": "0x60806040523480156200001157600080fd5b5060405162000c2938038062000c298339818101604052810190620000379190620001e3565b80600090816200004891906200047f565b505062000566565b6000604051905090565b600080fd5b600080fd5b600080fd5b600080fd5b6000601f19601f8301169050919050565b7f4e487b7100000000000000000000000000000000000000000000000000000000600052604160045260246000fd5b620000b9826200006e565b810181811067ffffffffffffffff82111715620000db57620000da6200007f565b5b80604052505050565b6000620000f062000050565b9050620000fe8282620000ae565b919050565b600067ffffffffffffffff8211156200012157620001206200007f565b5b6200012c826200006e565b9050602081019050919050565b60005b83811015620001595780820151818401526020810190506200013c565b60008484015250505050565b60006200017c620001768462000103565b620000e4565b9050828152602081018484840111156200019b576200019a62000069565b5b620001a884828562000139565b509392505050565b600082601f830112620001c857620001c762000064565b5b8151620001da84826020860162000165565b91505092915050565b600060208284031215620001fc57620001fb6200005a565b5b600082015167ffffffffffffffff8111156200021d576200021c6200005f565b5b6200022b84828501620001b0565b91505092915050565b600081519050919050565b7f4e487b7100000000000000000000000000000000000000000000000000000000600052602260045260246000fd5b600060028204905060018216806200028757607f821691505b6020821081036200029d576200029c6200023f565b5b50919050565b60008190508160005260206000209050919050565b60006020601f8301049050919050565b600082821b905092915050565b600060088302620003077fffffffffffffffffffffffffffffffffffffffffffffffffffffffffffffffff82620002c8565b620003138683620002c8565b95508019841693508086168417925050509392505050565b6000819050919050565b6000819050919050565b6000620003606200035a62000354846200032b565b62000335565b6200032b565b9050919050565b6000819050919050565b6200037c836200033f565b620003946200038b8262000367565b848454620002d5565b825550505050565b600090565b620003ab6200039c565b620003b881848462000371565b505050565b5b81811015620003e057620003d4600082620003a1565b600181019050620003be565b5050565b601f8211156200042f57620003f981620002a3565b6200040484620002b8565b8101602085101562000414578190505b6200042c6200042385620002b8565b830182620003bd565b50505b505050565b600082821c905092915050565b6000620004546000198460080262000434565b1980831691505092915050565b60006200046f838362000441565b9150826002028217905092915050565b6200048a8262000234565b67ffffffffffffffff811115620004a657620004a56200007f565b5b620004b282546200026e565b620004bf828285620003e4565b600060209050601f831160018114620004f75760008415620004e2578287015190505b620004ee858262000461565b8655506200055e565b601f1984166200050786620002a3565b60005b8281101562000531578489015182556001820191506020850194506020810190506200050a565b868310156200055157848901516200054d601f89168262000441565b8355505b6001600288020188555050505b505050505050565b6106b380620005766000396000f3fe608060405234801561001057600080fd5b50600436106100365760003560e01c80634fedf2ea1461003b578063cf45630d14610059575b600080fd5b610043610075565b60405161005091906101e1565b60405180910390f35b610073600480360381019061006e919061034c565b610107565b005b606060008054610084906103c4565b80601f01602080910402602001604051908101604052809291908181526020018280546100b0906103c4565b80156100fd5780601f106100d2576101008083540402835291602001916100fd565b820191906000526020600020905b8154815290600101906020018083116100e057829003601f168201915b5050505050905090565b806000908161011691906105ab565b507fc640aa21af9f8c404793e164bdf46fe6ff2973a9814c0d8d2631054029180c798160405161014691906101e1565b60405180910390a150565b600081519050919050565b600082825260208201905092915050565b60005b8381101561018b578082015181840152602081019050610170565b60008484015250505050565b6000601f19601f8301169050919050565b60006101b382610151565b6101bd818561015c565b93506101cd81856020860161016d565b6101d681610197565b840191505092915050565b600060208201905081810360008301526101fb81846101a8565b905092915050565b6000604051905090565b600080fd5b600080fd5b600080fd5b600080fd5b7f4e487b7100000000000000000000000000000000000000000000000000000000600052604160045260246000fd5b61025982610197565b810181811067ffffffffffffffff8211171561027857610277610221565b5b80604052505050565b600061028b610203565b90506102978282610250565b919050565b600067ffffffffffffffff8211156102b7576102b6610221565b5b6102c082610197565b9050602081019050919050565b82818337600083830152505050565b60006102ef6102ea8461029c565b610281565b90508281526020810184848401111561030b5761030a61021c565b5b6103168482856102cd565b509392505050565b600082601f83011261033357610332610217565b5b81356103438482602086016102dc565b91505092915050565b6000602082840312156103625761036161020d565b5b600082013567ffffffffffffffff8111156103805761037f610212565b5b61038c8482850161031e565b91505092915050565b7f4e487b7100000000000000000000000000000000000000000000000000000000600052602260045260246000fd5b600060028204905060018216806103dc57607f821691505b6020821081036103ef576103ee610395565b5b50919050565b60008190508160005260206000209050919050565b60006020601f8301049050919050565b600082821b905092915050565b6000600883026104577fffffffffffffffffffffffffffffffffffffffffffffffffffffffffffffffff8261041a565b610461868361041a565b95508019841693508086168417925050509392505050565b6000819050919050565b6000819050919050565b60006104a86104a361049e84610479565b610483565b610479565b9050919050565b6000819050919050565b6104c28361048d565b6104d66104ce826104af565b848454610427565b825550505050565b600090565b6104eb6104de565b6104f68184846104b9565b505050565b5b8181101561051a5761050f6000826104e3565b6001810190506104fc565b5050565b601f82111561055f57610530816103f5565b6105398461040a565b81016020851015610548578190505b61055c6105548561040a565b8301826104fb565b50505b505050565b600082821c905092915050565b600061058260001984600802610564565b1980831691505092915050565b600061059b8383610571565b9150826002028217905092915050565b6105b482610151565b67ffffffffffffffff8111156105cd576105cc610221565b5b6105d782546103c4565b6105e282828561051e565b600060209050601f8311600181146106155760008415610603578287015190505b61060d858261058f565b865550610675565b601f198416610623866103f5565b60005b8281101561064b57848901518255600182019150602085019450602081019050610626565b868310156106685784890151610664601f891682610571565b8355505b6001600288020188555050505b50505050505056fea2646970667358221220b0a5b07402367729b4ffeb9d7f6dacabd11254e68b929b0a49e2900ee40fcd2364736f6c63430008110033",
  "linkReferences": {},
  "deployedLinkReferences": {}
}